:102000000080002039670000216700002167000080
:1020100000000000000000000000000000000000C0
:102020000000000000000000000000002167000028
:102030000000000000000000216700009967000018
:102040002167000021670000216700002167000070
:10205000216700002167000021670000256700005C
:102060002167000021670000216700002167000050
:1020700021670000695800005958000021670000DE
:102080002167000021670000216700002167000030
:1020900000000000216700002167000021670000A8
:1020A0002167000021670000216700002167000010
:1020B0000000000010B5064C2378002B07D1054B1B
:1020C000002B02D0044800E000BF0123237010BDA4
:1020D000000200200000000020D90000044B10B5D1
:1020E000002B03D00349044800E000BF10BDC046E8
:1020F000000000000402002020D9000000207047EA
:1021000010B582B00968126804680093E46900237E
:10211000A04702B010BD30B583B0096812681B68D3
:102120000468069D0095E469A04703B030BD000037
:1021300030B583B0096812681B680468024D0095C9
:10214000A46AA04703B030BD60EA000010B5882340
:102150009B00C3181A68541CFF2323408924A40041
:1021600004192468A3420AD08218902464001155EF
:1021700088229200944660440360012010BD002034
:10218000FCE700B583B003681B6B01226946073189
:102190009847012803D16B46D87903B000BD0120D0
:1021A0004042FAE78E235B00C3588C2252008258CB
:1021B000934202D0C018007E704701204042FBE7E6
:1021C00010B500690368DB68984710BD10B50400BE
:1021D00003681B699847002801D1207D10BD0120AC
:1021E000FCE710B503685B6B9847431E9841C0B28B
:1021F00010BD000010B50400064B036093239B0044
:10220000C01804F015F98A239B00E01804F010F9B7
:10221000200010BD44CF0000F0B5CE4600B582B01E
:10222000019114002130FF3006001700002F2DD03F
:1022300082235B00F35880225200B5585B1B002BB1
:1022400007DD013B002B06D1E01B02B004BC914628
:10225000F0BD9B18F5E79F4200DA3B008022520058
:10226000521B91469A4200DB994670194A460199E1
:1022700008F00CFD4D442B00FF2213400132B350F7
:102280004A46BF1A019B4B440193CFE7E01BDCE7B2
:1022900070B5012800D070BD234B9942FBD1234C6F
:1022A00000236360FA229200A260214A2260214A40
:1022B00022618E225200A350043AA3500D32FF3205
:1022C000A350043AA3501C4D29001C4804F005F902
:1022D00004F072FA8D239B00E0500433184AE25058
:1022E0002900184804F0F9F8174D2A001749200072
:1022F00006F006FC164C1749200004F0EEF8164EC6
:102300002A003100200006F0FBFB144C1449200089
:1023100004F0E3F82A003100200006F0F1FB02216E
:10232000104803F06BF8B6E7FFFF000068020020DA
:1023300044CF00001407002098CF00009004002034
:10234000E0930400B404002000000020F521000008
:102350001C02002088CF0000316400002802002009
:102360009CCF000034020020F0B5E5B004000191DC
:1023700002920393022004F069FA00238E22520095
:10238000A350043AA350C749206903F09FFFC649F0
:10239000206903F09BFF0A220021206904F004F861
:1023A000C249206903F092FF20690368DB689847FF
:1023B000022004F04BFABE4904A804F08EF8402134
:1023C00004A804F059F804F0F7F90700022004F01B
:1023D0003DFA206903681B699847002800DC86E005
:1023E000206903685B6998470028F2DBC1B204A842
:1023F00004F0F9F8AF4916A804F06FF816A904A87C
:1024000004F029F9050016A804F012F8002D78D17F
:10241000A94913A804F061F813A904A804F01BF952
:10242000050013A804F004F8002D00D025E1A3490D
:1024300010A804F052F810A904A804F00CF9050043
:1024400010A803F0F5FF002DC3D0994904A804F0AB
:102450008AF82C2221690DA803F0D0FF0DA804F002
:1024600056F90DA803F0E4FF0D2221690AA803F034
:10247000C5FF0AA804F04BF906000AA803F0D8FF2C
:10248000206903681B6998470028F9D02069036810
:102490005B6998470A28F3D1206903681B6998474C
:1024A0000028F9D0206903685B6998470A28F3D1AE
:1024B0000025AE428DDD206903681B69984700281E
:1024C000F7D0206903685B699847C0B28C235B0032
:1024D000E258531CFF210B401D3161588B4204D040
:1024E000A21810768C225200A3500135E1E704F0C7
:1024F00063F9C01B724B984200D867E701235B4227
:1025000000E00123002B00D1B9E004A803F090FF04
:102510006449206903F0DAFE6A49206903F0D6FEB7
:102520000199206903F0D2FE6049206903F0CEFED4
:1025300020690368DB689847022004F087F95C494A
:1025400004A803F0CAFF402104A803F095FF04F09B
:1025500033F90600022004F079F9206903681B6949
:102560009847002800DC92E0206903685B6998477F
:102570000028F2DBC1B204A804F035F84D4925A8C3
:1025800003F0ABFF25A904A804F065F8070025A80F
:1025900003F04EFF002F00D096E0474922A803F039
:1025A0009CFF22A904A804F056F8070022A803F013
:1025B0003FFF002F00D043E140491FA803F08DFFEB
:1025C0001FA904A804F047F807001FA803F030FF74
:1025D000002FC2D0364904A803F0C5FF2C22216980
:1025E0001CA803F00BFF1CA804F091F81CA803F032
:1025F0001FFF0D22216919A803F000FF19A804F09C
:1026000086F8070019A803F013FF206903681B6907
:1026100098470028F9D0206903685B6998470A2821
:10262000F3D1206903681B6998470028F9D0206915
:1026300003685B6998470A28F3D10025AF428CDD17
:10264000206903681B6998470028F7D02069036850
:102650005B699847C0B28C235B00E258511C193B60
:102660000B408E21490061588B4204D0A21810768D
:102670008C225200A3500135E0E7022342E704A870
:1026800004F01AF80A4904A803F06DFF3DE704F0CE
:1026900093F8801B0A4B984200D85BE701235B420A
:1026A00013E0C04670D0000074D000007CD0000061
:1026B00098CF000040D00000C0CF000080D00000C4
:1026C000E703000088D000000123002B00D1B9E00F
:1026D00004A803F0ADFECC49206903F0F7FDCB4917
:1026E000206903F0F3FD0299206903F0EFFDC8496A
:1026F000206903F0EBFD20690368DB68984702203E
:1027000004F0A4F8C34904A803F0E7FE402104A89C
:1027100003F0B2FE04F050F80500022004F096F831
:10272000206903681B699847002800DC92E0206953
:1027300003685B6998470028F2DBC1B204A803F084
:1027400052FFB54934A803F0C8FE34A904A803F029
:1027500082FF060034A803F06BFE002E00D083E059
:10276000AE4931A803F0B9FE31A904A803F073FF04
:10277000060031A803F05CFE002E00D030E1A8492D
:102780002EA803F0AAFE2EA904A803F064FF0600F9
:102790002EA803F04DFE002EC2D09E4904A803F0DF
:1027A000E2FE2C2221692BA803F028FE2BA803F0BF
:1027B000AEFF2BA803F03CFE0D22216928A803F0F0
:1027C0001DFE28A803F0A3FF060028A803F030FE92
:1027D000206903681B6998470028F9D020690368BD
:1027E0005B6998470A28F3D1206903681B699847F9
:1027F0000028F9D0206903685B6998470A28F3D15B
:102800000027BE428CDD206903681B6998470028B9
:10281000F7D0206903685B699847C0B28C235B00DE
:10282000E258511C193B0B408E21490061588B42E4
:1028300004D0A21810768C225200A3500137E0E792
:10284000022342E704A803F037FF724904A803F00B
:102850008AFE3DE703F0B0FF401B724B984200D860
:102860005BE701235B4200E00123002B00D1B9E0CC
:1028700004A803F0DDFD6449206903F027FD6A49DF
:10288000206903F023FD0399206903F01FFD6049CF
:10289000206903F01BFD20690368DB68984702206C
:1028A00003F0D4FF5B4904A803F017FE402104A8FD
:1028B00003F0E2FD03F080FF0700022003F0C6FFF3
:1028C000206903681B699847002800DC92E02069B2
:1028D00003685B6998470028F2DBC1B204A803F0E3
:1028E00082FE4D4943A803F0F8FD43A904A803F074
:1028F000B2FE050043A803F09BFD002D00D095E03B
:10290000464940A803F0E9FD40A904A803F0A3FE4E
:10291000050040A803F08CFD002D00D04FE1404998
:102920003DA803F0DAFD3DA904A803F094FE0500DC
:102930003DA803F07DFD002DC2D0364904A803F068
:1029400012FE2C2221693AA803F058FD3AA803F0A0
:10295000DEFE3AA803F06CFD0D22216937A803F0D2
:102960004DFD37A803F0D3FE050037A803F060FD46
:10297000206903681B6998470028F9D0206903681B
:102980005B6998470A28F3D1206903681B69984757
:102990000028F9D0206903685B6998470A28F3D1B9
:1029A0000026B5428CDD206903681B699847002822
:1029B000F7D0206903685B699847C0B28C235B003D
:1029C000E258511C193B0B408E21490061588B4243
:1029D00004D0A21810768C225200A3500136E0E7F2
:1029E000022342E704A803F067FE0A4904A803F0A3
:1029F000BAFD3DE703F0E0FEC01B0A4B984200D849
:102A00005BE701235B4212E070D0000094D000002D
:102A10007CD0000098CF000040D00000C0CF000064
:102A200080D00000E7030000A0D000000123002BAD
:102A300000D1C6E004A803F0FBFCD44D29002069B6
:102A400003F044FCD249206903F040FCD14E310030
:102A5000206903F03BFC20690368DB68984702208B
:102A600003F0F4FE2900206903F030FC31002069F6
:102A700003F02CFC20690368DB689847022003F010
:102A8000E5FEC54904A803F028FD402104A803F091
:102A9000F3FC03F091FE0700022003F0D7FE20694B
:102AA00003681B699847002800DC92E020690368EE
:102AB0005B6998470028F2DBC1B204A803F093FDDC
:102AC000B64952A803F009FD52A904A803F0C3FDBA
:102AD000050052A803F0ACFC002D00D083E0B04903
:102AE0004FA803F0FAFC4FA904A803F0B4FD0500B9
:102AF0004FA803F09DFC002D00D031E1A9494CA85E
:102B000003F0EBFC4CA904A803F0A5FD05004CA8BC
:102B100003F08EFC002DC2D09F4904A803F023FDD2
:102B20002C22216949A803F069FC49A803F0EFFDB4
:102B300049A803F07DFC0D22216946A803F05EFC44
:102B400046A803F0E4FD050046A803F071FC2069E7
:102B500003681B6998470028F9D0206903685B69FE
:102B600098470A28F3D1206903681B699847002811
:102B7000F9D0206903685B6998470A28F3D10026D9
:102B8000B5428CDD206903681B6998470028F7D09F
:102B9000206903685B699847C0B28C235B00E258E8
:102BA000511C193B0B408E21490061588B4204D0C7
:102BB000A21810768C225200A3500136E0E70223BF
:102BC00035E704A803F078FD734904A803F0CBFCB3
:102BD00030E703F0F1FDC01B6A9B834200D95BE73D
:102BE00001256D4200E00125002D00D1BAE004A8C6
:102BF00003F01EFC012D00D1BCE0002323756349C6
:102C0000206903F063FB6849206903F05FFB6149B9
:102C1000206903F05BFB20690368DB6898470220AA
:102C200003F014FE5C4904A803F057FC402104A8FB
:102C300003F022FC03F0C0FD0700022003F006FEB3
:102C4000206903681B699847002800DC94E020692C
:102C500003685B6998470028F2DBC1B204A803F05F
:102C6000C2FC524961A803F038FC61A904A803F032
:102C7000F2FC050061A803F0DBFB002D00D099E019
:102C800047495EA803F029FC5EA904A803F0E3FC11
:102C900005005EA803F0CCFB002D00D099E041496F
:102CA0005BA803F01AFC5BA904A803F0D4FC0500A0
:102CB0005BA803F0BDFB002DC2D0374904A803F088
:102CC00052FC2C22216958A803F098FB58A803F065
:102CD0001EFD58A803F0ACFB0D22216955A803F096
:102CE0008DFB55A803F013FD050055A803F0A0FBCC
:102CF000206903681B6998470028F9D02069036898
:102D00005B6998470A28F3D1206903681B699847D3
:102D10000028F9D0206903685B6998470A28F3D135
:102D20000026B5428CDD206903681B69984700289E
:102D3000F7D0206903685B699847C0B28C235B00B9
:102D4000E258511C193B0B408E21490061588B42BF
:102D500004D0A21810768C225200A3500136E0E76E
:102D6000022541E704A803F0A7FC0B4904A803F0DF
:102D7000FAFB3CE7012341E703F01EFDC01B0C4BAF
:102D8000984200D859E701256D4214E070D0000048
:102D9000ACD000007CD0000098CF0000B4D0000080
:102DA000C0CF000080D00000C0D0000040D00000A4
:102DB000CF0700000125002D0DD004A803F038FB3B
:102DC000012D10D00024013C60426041C0B265B0CA
:102DD000F0BD0225EFE704A803F06EFC0E4904A83D
:102DE00003F0C1FBE9E7206903681B6998470028E5
:102DF000F9D0206903685B6998473D28F3D12169C0
:102E00000D2207A803F0FAFA07A803F080FC0400DB
:102E100007A803F00DFBD6E798CF0000F0B5D3B0BC
:102E20000400019102921D00022003F00FFD002317
:102E30008E225200A350043AA350C849206903F0DF
:102E400045FAC749206903F041FA0A2201212069A5
:102E500003F0AAFAC349206903F038FA206903682D
:102E6000DB689847022003F0F1FCBF4904A803F097
:102E700034FB402104A803F0FFFA03F09DFC03900B
:102E8000022003F0E3FC206903681B6998470028CF
:102E900000DC86E0206903685B6998470028F2DB64
:102EA000C1B204A803F09FFBB04913A803F015FBBF
:102EB00013A904A803F0CFFB060013A803F0B8FA87
:102EC000002E79D1AA4910A803F007FB10A904A885
:102ED00003F0C1FB060010A803F0AAFA002E00D0F0
:102EE00026E1A4490DA803F0F8FA0DA904A803F0FF
:102EF000B2FB06000DA803F09BFA002EC3D09A493E
:102F000004A803F030FB2C2221690AA803F076FA0A
:102F10000AA803F0FCFB0AA803F08AFA0D22216933
:102F200007A803F06BFA07A803F0F1FB070007A856
:102F300003F07EFA206903681B6998470028F9D0DE
:102F4000206903685B6998470A28F3D12069036800
:102F50001B6998470028F9D0206903685B69984786
:102F60000A28F3D10026B7428DDD206903681B696A
:102F700098470028F7D0206903685B699847C0B27A
:102F80008C235B00E258531CFF210B401D3161581C
:102F90008B4204D0A21810768C225200A350013626
:102FA000E1E703F009FC039BC01A734B984200D879
:102FB00066E701235B4200E00123002B00D1B9E06A
:102FC00004A803F035FA6549206903F07FF96B49DD
:102FD000206903F07BF90199206903F077F96149D1
:102FE000206903F073F920690368DB6898470220C1
:102FF00003F02CFC5C4904A803F06FFA402104A8FC
:1030000003F03AFA03F0D8FB0190022003F01EFC13
:10301000206903681B699847002800DC92E020695A
:1030200003685B6998470028F2DBC1B204A803F08B
:10303000DAFA4E4922A803F050FA22A904A803F0B4
:103040000AFB070022A803F0F3F9002F00D097E055
:1030500047491FA803F041FA1FA904A803F0FBFA8F
:1030600007001FA803F0E4F9002F00D044E1414914
:103070001CA803F032FA1CA904A803F0ECFA07001C
:103080001CA803F0D5F9002FC2D0374904A803F0DB
:103090006AFA2C22216919A803F0B0F919A803F0E3
:1030A00036FB19A803F0C4F90D22216916A803F014
:1030B000A5F916A803F02BFB070016A803F0B8F932
:1030C000206903681B6998470028F9D020690368C4
:1030D0005B6998470A28F3D1206903681B69984700
:1030E0000028F9D0206903685B6998470A28F3D162
:1030F0000026B7428CDD206903681B6998470028C9
:10310000F7D0206903685B699847C0B28C235B00E5
:10311000E258511C193B0B408E21490061588B42EB
:1031200004D0A21810768C225200A3500136E0E79A
:10313000022342E704A803F0BFFA0B4904A803F0F6
:1031400012FA3DE703F038FB019BC01A0A4B984284
:1031500000D85AE701235B4213E0C04670D000005C
:1031600074D000007CD0000098CF000040D0000058
:10317000C0CF000080D00000E7030000C8D00000EE
:103180000123002B00D1B9E004A803F051F9CE4986
:10319000206903F09BF8CD49206903F097F8029964
:1031A000206903F093F8CA49206903F08FF8206979
:1031B0000368DB689847022003F048FBC54904A870
:1031C00003F08BF9402104A803F056F903F0F4FA58
:1031D0000190022003F03AFB206903681B699847BD
:1031E000002800DC92E0206903685B6998470028AA
:1031F000F2DBC1B204A803F0F6F9B74931A803F035
:103200006CF931A904A803F026FA060031A803F0EE
:103210000FF9002E00D084E0B0492EA803F05DF92C
:103220002EA904A803F017FA06002EA803F000F94F
:10323000002E00D034E1AA492BA803F04EF92BA9A7
:1032400004A803F008FA06002BA803F0F1F8002EFA
:10325000C2D0A04904A803F086F92C22216928A82D
:1032600003F0CCF828A803F052FA28A803F0E0F8FD
:103270000D22216925A803F0C1F825A803F047FA1B
:10328000060025A803F0D4F8206903681B69984755
:103290000028F9D0206903685B6998470A28F3D1B0
:1032A000206903681B6998470028F9D020690368E2
:1032B0005B6998470A28F3D10027BE428CDD20695C
:1032C00003681B6998470028F7D0206903685B6989
:1032D0009847C0B28C235B00E258511C193B0B404D
:1032E0008E21490061588B4204D0A21810768C229E
:1032F0005200A3500137E0E7022342E704A803F09D
:10330000DBF9744904A803F02EF93DE703F054FA01
:10331000019BC01A734B984200D85AE701235B42C5
:1033200000E00123002B00D1BCE004A803F080F8EA
:10333000002D00D1E1E06449206902F0C7FF6A492D
:10334000206902F0C3FF2900206902F0BFFF604935
:10335000206902F0BBFF20690368DB689847022000
:1033600003F074FA5B4904A803F0B7F8402104A8FD
:1033700003F082F803F020FA0700022003F066FA57
:10338000206903681B699847002800DC92E02069E7
:1033900003685B6998470028F2DBC1B204A803F018
:1033A00022F94D4940A803F098F840A904A803F079
:1033B00052F9050040A803F03BF8002D00D095E03D
:1033C00046493DA803F089F83DA904A803F043F954
:1033D00005003DA803F02CF8002D00D04FE1404936
:1033E0003AA803F07AF83AA904A803F034F90500E2
:1033F0003AA803F01DF8002DC2D0364904A803F006
:10340000B2F82C22216937A802F0F8FF37A803F0A0
:103410007EF937A803F00CF80D22216934A802F0D8
:10342000EDFF34A803F073F9050034A803F000F8A9
:10343000206903681B6998470028F9D02069036850
:103440005B6998470A28F3D1206903681B6998478C
:103450000028F9D0206903685B6998470A28F3D1EE
:103460000026B5428CDD206903681B699847002857
:10347000F7D0206903685B699847C0B28C235B0072
:10348000E258511C193B0B408E21490061588B4278
:1034900004D0A21810768C225200A3500136E0E727
:1034A00002233FE704A803F007F90A4904A803F040
:1034B0005AF83AE703F080F9C01B0A4B984200D84B
:1034C0005BE701235B4212E070D00000D4D0000023
:1034D0007CD0000098CF000040D00000C0CF00009A
:1034E00080D00000E7030000E0D000000123002BA3
:1034F00000D1C6E004A802F09BFF794D29002069A5
:1035000002F0E4FE7749206902F0E0FE764E3100D9
:10351000206902F0DBFE20690368DB68984702201F
:1035200003F094F92900206902F0D0FE31002069EF
:1035300002F0CCFE20690368DB689847022003F0A4
:1035400085F96A4904A802F0C8FF402104A802F0E6
:1035500093FF03F031F90700022003F077F92069A7
:1035600003681B699847002800DC92E02069036823
:103570005B6998470028F2DBC1B204A803F033F876
:103580005B494FA802F0A9FF4FA904A803F063F814
:1035900005004FA802F04CFF002D00D083E05549F4
:1035A0004CA802F09AFF4CA904A803F054F80500B7
:1035B0004CA802F03DFF002D00D085E04E4949A8FF
:1035C00002F08BFF49A904A803F045F8050049A8BB
:1035D00002F02EFF002DC2D0444904A802F0C3FF20
:1035E0002C22216946A802F009FF46A803F08FF8B3
:1035F00046A802F01DFF0D22216943A802F0FEFE3D
:1036000043A803F084F8050043A802F011FF2069E5
:1036100003681B6998470028F9D0206903685B6933
:1036200098470A28F3D1206903681B699847002846
:10363000F9D0206903685B6998470A28F3D100260E
:10364000B5428CDD206903681B6998470028F7D0D4
:10365000206903685B699847C0B28C235B00E2581D
:10366000511C193B0B408E21490061588B4204D0FC
:10367000A21810768C225200A3500136E0E70223F4
:1036800035E704A803F018F8184904A802F06BFF06
:1036900030E703F091F8C01B589B834200D95BE7E9
:1036A00001256D4200E00125002D0FD004A802F095
:1036B000BFFE012D12D000232375FA20800003F0F5
:1036C000C5F8207D53B0F0BD0225EDE704A802F057
:1036D000F3FF064904A802F046FFE7E70123EBE702
:1036E00070D00000ACD000007CD0000098CF00006B
:1036F000B4D00000C0CF000080D00000F0B595B07D
:103700000400022003F0A2F88C235B00E758043386
:10371000E358FF1A0BD4002F1CD08C235B00E05819
:103720000433E358C01A00D5BFE015B0F0BD01372F
:10373000FF37F0E703F040F8019BC01A63281AD95D
:1037400001235B4200E00123002B00D1A5E002A889
:1037500002F06EFE206903681B6998470028DCD0E0
:10376000534902A802F0B9FE402102A802F084FEEB
:1037700003F022F80190022003F068F82069036842
:103780001B6998470028D5DD206903685B69984765
:103790000028F3DBC1B202A802F025FF454911A8B9
:1037A00002F09BFE11A902A802F055FF060011A825
:1037B00002F03EFE002EC6D13F490EA802F08DFE5B
:1037C0000EA902A802F047FF06000EA802F030FE84
:1037D000002E60D139490BA802F07FFE0BA902A888
:1037E00002F039FF06000BA802F022FE002EC5D021
:1037F0002F4902A802F0B7FE2C22216908A802F086
:10380000FDFD08A802F083FF08A802F011FE0D22BA
:10381000216905A802F0F2FD05A802F078FF060074
:1038200005A802F005FE206903681B699847002877
:10383000F9D0206903685B6998470A28F3D12069A9
:1038400003681B6998470028F9D0206903685B6901
:1038500098470A28F3D13D00AE428FDD2069036806
:103860001B6998470028F7D0206903685B6998476F
:10387000C0B28C235B00E258511C193B0B408E21D7
:10388000490061588B4204D0A21810768C22520055
:10389000A3500135E0E7022356E702A802F00CFF2F
:1038A000034902A802F05FFE51E70130FF303CE718
:1038B00098CF000040D00000C0CF000080D00000B2
:1038C000F0B5DE4657464E464546E0B5FDB004002D
:1038D000894680225200002106A807F0F3F926004D
:1038E0002136FF3688239B00E3181F6889239B003D
:1038F000E3181B68FF1A00D5D6E03D0006AB9A46D8
:10390000002D00D1F1E080235B00F35882225200A9
:10391000B25890469B1A00D5C9E0002B00D0C9E0F0
:103920007F1B00978E4949A802F0D7FD8A239B0090
:10393000E01849A902F0BBFEC643F60F49A802F001
:1039400077FD002E00D01DE18649206902F0BEFC03
:103950008549206902F0BAFC8449206902F0B6FC6E
:1039600020690368DB689847022002F06FFF8049F6
:1039700003A802F0B2FD402103A802F07DFD02F091
:103980001BFF0190022002F061FF206903681B69A0
:103990009847002800DCAAE0206903685B69984723
:1039A0000028F2DBC1B203A802F01DFE714958A83D
:1039B00002F093FD58A903A802F04DFE050058A897
:1039C00002F036FD002D00D09CE06B4955A802F0B6
:1039D00084FD55A903A802F03EFE050055A802F09B
:1039E00027FD002D00D097E0644952A802F075FD34
:1039F00052A903A802F02FFE050052A802F018FDFC
:103A0000002DC2D05A4903A802F0ADFD2C22216935
:103A10004FA802F0F3FC4FA802F079FE4FA802F085
:103A200007FD0D2221694CA802F0E8FC4CA802F029
:103A30006EFE05004CA802F0FBFC206903681B69C0
:103A400098470028F9D0206903685B6998470A28DD
:103A5000F3D1206903681B6998470028F9D02069D1
:103A600003685B6998470A28F3D10026B5428CDDCC
:103A7000206903681B6998470028F7D0206903680C
:103A80005B699847C0B28C235B00E258531CFF214E
:103A90000B401D3161588B4204D0A21810768C2245
:103AA0005200A3500136E1E70137FF3725E7013324
:103AB000FF3332E79D4200DA2B008022520041465C
:103AC000521A93469A4200DB9B464346F1185A46E7
:103AD000504607F0DBF843465B44FF2213400532B3
:103AE000B3505B46ED1ADA440AE77F1B19E702F090
:103AF00063FE019BC01A224B984200D842E7012680
:103B0000764200E00126002E08D003A802F090FCC7
:103B1000012E0BD0002636E00226F4E703A802F0BF
:103B2000CBFD134903A802F01EFDEEE720690368F0
:103B30001B6998470028F9D0206903685B6998479A
:103B40003D28F3D10D22216946A802F057FC46A872
:103B500002F0DDFD060046A802F06AFC13E0C04654
:103B600024D0000070D00000ECD000007CD0000019
:103B700098CF000040D00000C0CF000080D00000EF
:103B8000CF0700004026009DB54200D967E14B46B3
:103B9000002B00D117E1B549206902F097FBB44929
:103BA000206902F093FB0A222900206902F00CFC34
:103BB000B049206902F08AFB20690368DB689847F6
:103BC000022002F043FE206903685B68009A06A9A0
:103BD0009847A94903A802F080FC402103A802F0FD
:103BE0004BFC02F0E9FD0090022002F02FFE20695C
:103BF00003681B699847002800DCFDE02069036822
:103C00005B6998470028F2DBC1B203A802F0EBFC25
:103C10009A4979A802F061FC79A903A802F01BFD7A
:103C2000060079A802F004FC002E00D0EFE09449D1
:103C300076A802F052FC76A903A802F00CFD06005B
:103C400076A802F0F5FB002E00D0F2E08D4973A8B3
:103C500002F043FC73A903A802F0FDFC060073A860
:103C600002F0E6FB002E00D0E5E0874970A802F0E4
:103C700034FC70A903A802F0EEFC060070A802F064
:103C8000D7FB002E00D0D8E080496DA802F025FCBB
:103C90006DA903A802F0DFFC06006DA802F0C8FBC6
:103CA000002E00D0CBE07A496AA802F016FC6AA97F
:103CB00003A802F0D0FC06006AA802F0B9FB002EAF
:103CC00000D0BEE0734967A802F007FC67A903A80B
:103CD00002F0C1FC060067A802F0AAFB002E00D08B
:103CE000B1E06D4964A802F0F8FB64A903A802F0F2
:103CF000B2FC060064A802F09BFB002E00D0A4E0FA
:103D0000664961A802F0E9FB61A903A802F0A3FCDF
:103D1000060061A802F08CFB002E00D167E756492F
:103D200003A802F020FC2C2221695EA802F066FBA9
:103D30005EA802F0ECFC5EA802F07AFB0D2221697D
:103D40005BA802F05BFB5BA802F0E1FC06005BA84D
:103D500002F06EFB206903681B6998470028F9D0C0
:103D6000206903685B6998470A28F3D120690368D2
:103D70001B6998470028F9D0206903685B69984758
:103D80000A28F3D10025AE4200DC30E72069036841
:103D90001B6998470028F6D0206903685B6998473B
:103DA000C0B28C235B00E258511C193B0B408E21A2
:103DB000490061588B4204D0A21810768C22520020
:103DC000A3500135DFE72949206902F07FFA344921
:103DD000206902F07BFA0A220099206902F0F4FAC5
:103DE0002449206902F072FA20690368DB68984769
:103DF000022002F02BFDE6E602F0DEFC009BC01A7A
:103E0000284B984200D8EFE60124644200E00124E8
:103E1000002C1CD003A802F00BFB012C01D021DDEB
:103E2000674238007DB03CBC90469946A246AB46FE
:103E3000F0BD0224ECE70324EAE70424E8E70524C4
:103E4000E6E70624E4E70724E2E70824E0E703A81E
:103E500002F032FC084903A802F085FBDAE71427D8
:103E60007F42DEE701277F42DBE7C04670D00000DB
:103E7000F4D000007CD0000098CF000040D00000BB
:103E8000C0CF0000E0CF0000D4CF00000CD0000075
:103E90002CD00000C8CF0000FCCF000080D0000074
:103EA000FCD00000E7030000F0B5C64600B5A6B0A0
:103EB0008F4801F095FA00280BD08D4801F0E8FA00
:103EC00006F078FD02000B008A498B4807F024FCBD
:103ED000EEE78A4802F0BAFC874905A802F0FDFA2D
:103EE000874C002389229200A350043AA35005A9CD
:103EF000200002F0E3F901212000FFF7E1FCFA20A5
:103F0000800002F0A3FC022002F0A0FC8C235B00E6
:103F1000E6580433E358F61A11D4002E22D0784A1A
:103F20008C235B00D3588E21490052589B1A00D530
:103F3000CEE0002B00D1DCE100239846B2E101364F
:103F4000FF36EAE702F038FC019BC01A63281BD950
:103F500001235B4200E00123002B00D1B0E002A866
:103F600002F066FA664B186903681B6998470028D7
:103F7000D5D0644902A802F0B0FA402102A802F0AC
:103F80007BFA02F019FC0190022002F05FFC5C4B0E
:103F9000186903681B6998470028D3DD584B1869D6
:103FA00003685B6998470028F1DBC1B202A802F000
:103FB0001AFB554914A802F090FA14A902A802F0BD
:103FC0004AFB050014A802F033FA002DC3D14F4973
:103FD00011A802F082FA11A902A802F03CFB050028
:103FE00011A802F025FA002D68D149490EA802F067
:103FF00074FA0EA902A802F02EFB05000EA802F02A
:1040000017FA002DC3D03F4902A802F0ACFA3C4D8C
:104010002C2229690BA802F0F1F90BA802F077FB1A
:104020000BA802F005FA29690D2208A802F0E6F9AA
:1040300008A802F06CFB050008A802F0F9F9304B63
:10404000186903681B6998470028F8D02C4B186939
:1040500003685B6998470A28F1D1294B18690368FE
:104060001B6998470028F8D0254B186903685B69DD
:1040700098470A28F1D13700BD4288DD204B1869E6
:1040800003681B6998470028F6D01D4C2069036817
:104090005B699847C0B28C235B00E258511C193B06
:1040A0000B408E21490061588B4205D014498A1873
:1040B00010768C2252008B500137DDE702234BE74C
:1040C00002A802F0F9FA0F4902A802F04CFA46E7FA
:1040D0000133FF332DE70136FF36EFE002F06CFBD2
:1040E000019BC01A63282FD901235B4213E0C0460D
:1040F0003402002080CF0000C4040020E8FD00004E
:104100006802002098CF000040D00000C0CF00001F
:1041100080D000000123002B00D1B0E002A802F003
:1041200087F9764B186903681B699847002800D106
:10413000C7E0734902A802F0D0F9402102A802F0BA
:104140009BF902F039FB0190022002F07FFB6B4BE0
:10415000186903681B6998470028BFDD674B186919
:1041600003685B6998470028F1DBC1B202A802F03E
:104170003AFA644923A802F0B0F923A902A802F090
:104180006AFA050023A802F053F9002DC2D15E4956
:1041900020A802F0A2F920A902A802F05CFA05000A
:1041A00020A802F045F9002D67D158491DA802F05A
:1041B00094F91DA902A802F04EFA05001DA802F00C
:1041C00037F9002DC3D04E4902A802F0CCF94B4D6F
:1041D0002C2229691AA802F011F91AA802F097FAFC
:1041E0001AA802F025F929690D2217A802F006F98C
:1041F00017A802F08CFA050017A802F019F93F4B36
:10420000186903681B6998470028F8D03B4B186968
:1042100003685B6998470A28F1D1384B186903682D
:104220001B6998470028F8D0344B186903685B690C
:1042300098470A28F1D13400A54288DD2F4B186930
:1042400003681B6998470028F6D02C4F386903682B
:104250005B699847C0B28C235B00FA58531CFF215E
:104260000B401D3179588B4205D024498A181076AD
:104270008C2252008B500134DEE702234BE702A868
:1042800002F01AFA1E4902A802F06DF946E7002B67
:1042900023D01A4803681B6B012202A99847012307
:1042A0009C46E044022002F0D1FA144B8C225200CA
:1042B0009E5804329B58F61A00D50CE7002E00D108
:1042C0002FE70E4A8C235B00D3588E2149005258A9
:1042D0009B1ADCD50133FF33D9E70023984501D978
:1042E0000133FBE705A802F0A3F826B004BC904612
:1042F000F0BD05A802F09CF8F7E7C0466802002070
:1043000098CF000040D00000C0CF000080D0000057
:104310000B680268934200D370470800FCE7000076
:10432000F0B5DE4657464E464546E0B5A9B0040016
:1043300003919146022002F089FA0EE002F03CFA65
:10434000401B63281BD901235B4200E00123002BA3
:1043500000D1A6E005A802F06BF8206903681B698C
:104360009847002800D1A4E0D64905A802F0B5F886
:10437000402105A802F080F802F01EFA0500022094
:1043800002F064FA206903681B6998470028D5DDAC
:10439000206903685B6998470028F3DBC1B205A870
:1043A00002F021F9C84916A802F097F816A905A845
:1043B00002F051F9060016A802F03AF8002EC5D115
:1043C000C24913A802F089F813A905A802F043F91D
:1043D000060013A802F02CF8002E60D1BC4910A8EA
:1043E00002F07BF810A905A802F035F9060010A824
:1043F00002F01EF8002EC5D0B24905A802F0B3F8AD
:104400002C2221690DA801F0F9FF0DA802F07FF917
:104410000DA802F00DF80D2221690AA801F0EEFFA7
:104420000AA802F074F906000AA802F001F820694F
:1044300003681B6998470028F9D0206903685B6905
:1044400098470A28F3D1206903681B699847002818
:10445000F9D0206903685B6998470A28F3D10027DF
:10446000BE428FDD206903681B6998470028F7D09A
:10447000206903685B699847C0B28C235B00E258EF
:10448000511C193B0B408E21490061588B4204D0CE
:10449000A21810768C225200A3500137E0E70223C5
:1044A00055E705A802F008F9864905A802F05BF86F
:1044B00050E7019000260DE00133FF3318E0002B98
:1044C00034D1464655465C46039B9C46D4446346DD
:1044D000039376194E4500D306E14B469B1B089388
:1044E0008C235B00E3588E225200A2589B1AE3D41F
:1044F000099309A908A8FFF70BFF0568002D3FD015
:1045000018239B46A344AA46039B0293B0465E46EB
:10451000A346002DD5D080235B00F35882225200A1
:10452000B4581B1BCBD50133FF33C8E79D4200DADB
:104530002B0080277F003F1B9F4200DB1F003119AB
:104540003A00029806F0A2FBE419FF231C40053351
:10455000F450ED1B029B9C46BC4463460293D8E793
:1045600002F02AF9029BC01A63281AD901235B4280
:1045700000E00123002B00D1AEE005A801F058FFB8
:10458000206903681B6998470028A3D04D4905A8F6
:1045900001F0A3FF402105A801F06EFF02F00CF925
:1045A0000290022002F052F9206903681B699847C3
:1045B0000028D5DD206903685B6998470028F3DB94
:1045C000C1B205A802F00FF83F4925A801F085FF08
:1045D00025A905A802F03FF8070025A801F028FF4B
:1045E000002FC6D1394922A801F077FF22A905A8DA
:1045F00002F031F8070022A801F01AFF002F69D15C
:1046000033491FA801F069FF1FA905A802F023F88C
:1046100007001FA801F00CFF002FC5D0294905A8ED
:1046200001F0A1FF2C2221691CA801F0E7FE1CA8C3
:1046300002F06DF81CA801F0FBFE0D22216919A8FB
:1046400001F0DCFE19A802F062F8070019A801F0D9
:10465000EFFE206903681B6998470028F9D020699C
:1046600003685B6998470A28F3D1206903681B69CE
:1046700098470028F9D0206903685B6998470A28A1
:10468000F3D1019DAF428FDD206903681B69984714
:104690000028F7D0206903685B699847C0B28C2373
:1046A0005B00E258511C193B0B408E2149006158B8
:1046B0008B4204D0A21810768C225200A3500135F0
:1046C000E0E7C04698CF000040D00000C0CF000017
:1046D00080D0000002234DE705A801F0EDFF064958
:1046E00005A801F040FF48E7300029B03CBC9046E7
:1046F0009946A246AB46F0BD98CF000010B50249DE
:104700000120FDF7C5FD10BDFFFF0000F0B5CE464E
:10471000474680B5E3B004000D00029111000392FA
:104720001A00834801F036FB0121212002F06EFAC5
:104730000021212002F0E8FA01211E2002F066FA91
:1047400001211E2002F0E0FAC82002F07FF80021CB
:104750001E2002F0D9FAC82002F078F801211E20AC
:1047600002F0D2FAC82002F071F896239B00E554BB
:1047700002F022F8070015E002F01EF8019BC01AB3
:10478000C72835D901256D4200E00125002D00D153
:10479000BFE005A801F04CFE012D00D1C1E064206E
:1047A00002F054F802F008F8C01B624B984200D99E
:1047B000CEE06149206901F089FD604D2900206942
:1047C00001F084FD5E49206901F080FD20690368E5
:1047D000DB689847022002F039F8290005A801F0AB
:1047E0007CFE402105A801F047FE01F0E5FF0190A5
:1047F000022002F02BF8206903681B699847002803
:10480000BADD206903685B6998470028F3DBC1B211
:1048100005A801F0E8FE4B4917A801F05EFE17A9B4
:1048200005A801F018FF050017A801F001FE002DF2
:10483000ABD1454914A801F050FE14A905A801F018
:104840000AFF050014A801F0F3FD002D5FD13F49D8
:1048500011A801F042FE11A905A801F0FCFE050017
:1048600011A801F0E5FD002DC5D0344905A801F0DF
:104870007AFE2C2221690EA801F0C0FD0EA801F0DD
:1048800046FF0EA801F0D4FD0D2221690BA801F00E
:10489000B5FD0BA801F03BFF05000BA801F0C8FD1A
:1048A000206903681B6998470028F9D020690368CC
:1048B0005B6998470A28F3D1206903681B69984708
:1048C0000028F9D0206903685B6998470A28F3D16A
:1048D0000026B5428FDD206903681B6998470028D0
:1048E000F7D0206903685B699847C0B28C235B00EE
:1048F000E258531CFF210B401D3161588B4204D0FC
:10490000A21810768C225200A3500136E1E702254E
:104910003CE705A801F0D0FE084905A801F023FEF8
:1049200037E7642001F092FF0123984612E0C04669
:10493000140700200F27000070D0000098CF00005F
:104940007CD0000040D00000C0CF000080D000002C
:10495000002398464346002B00D0B9E04346002B85
:1049600000D1BBE3B749206901F0B0FCB64920692A
:1049700001F0ACFC0A220299206901F015FDB3494F
:10498000206901F0A3FC20690368DB6898470220D6
:1049900001F05CFFAE4905A801F09FFD402105A88C
:1049A00001F06AFD01F008FF0600022001F04EFF51
:1049B000206903681B699847002800DC70E22069C1
:1049C00003685B6998470028F2DBC1B205A801F0D3
:1049D0000AFEA0494DA801F080FD4DA905A801F0EF
:1049E0003AFE07004DA801F023FD002F00D061E240
:1049F00099494AA801F071FD4AA905A801F02BFECA
:104A000007004AA801F014FD002F00D062E293498C
:104A100047A801F062FD47A905A801F01CFE0700A8
:104A200047A801F005FD002FC2D0894905A801F073
:104A30009AFD2C22216944A801F0E0FC44A801F071
:104A400066FE44A801F0F4FC0D22216941A801F0A2
:104A5000D5FC41A801F05BFE070041A801F0E8FC8D
:104A6000206903681B6998470028F9D0206903680A
:104A70005B6998470A28F3D1206903681B69984746
:104A80000028F9D0206903685B6998470A28F3D1A8
:104A90000025AF428CDD206903681B699847002818
:104AA000F7D0206903685B699847C0B28C235B002C
:104AB000E258511C193B0B408E21490061588B4232
:104AC00004D0A21810768C225200A3500135E0E7E2
:104AD0005C49206901F0FAFB6149206901F0F6FBAD
:104AE0005A49206901F0F2FB20690368DB689847A6
:104AF000022001F0ABFE564905A801F0EEFC402172
:104B000005A801F0B9FC01F057FE0600022001F0F3
:104B10009DFE206903681B699847002800DC87E038
:104B2000206903685B6998470028F2DBC1B205A8D9
:104B300001F059FD4B492FA801F0CFFC2FA905A882
:104B400001F089FD05002FA801F072FC002D00D0B6
:104B50008CE041492CA801F0C0FC2CA905A801F06B
:104B60007AFD05002CA801F063FC002D00D037E190
:104B70003A4929A801F0B1FC29A905A801F06BFD6B
:104B8000050029A801F054FC002DC2D0304905A829
:104B900001F0E9FC2C22216926A801F02FFC26A8AF
:104BA00001F0B5FD26A801F043FC0D22216923A8E0
:104BB00001F024FC23A801F0AAFD050023A801F0C0
:104BC00037FC206903681B6998470028F9D02069E1
:104BD00003685B6998470A28F3D1206903681B6959
:104BE00098470028F9D0206903685B6998470A282C
:104BF000F3D10027BD428CDD206903681B6998470B
:104C00000028F7D0206903685B699847C0B28C23FD
:104C10005B00E258531CFF210B401D3161588B4251
:104C200004D0A21810768C225200A3500137E1E77D
:104C300001F0C2FD801B0C4B984200D866E70125AD
:104C40006D4214E070D000005CD000007CD0000009
:104C500098CF000040D00000C0CF000080D00000FE
:104C600044D000004CD00000E70300000125002DD7
:104C700000D1B7E005A801F0DBFB012D00D1B9E0C0
:104C80009949206901F022FB9849206901F01EFB37
:104C90009749206901F01AFB20690368DB6898478F
:104CA000022001F0D3FD934905A801F016FC402134
:104CB00005A801F0E1FB01F07FFD0600022001F0F4
:104CC000C5FD206903681B699847002800DCA1E046
:104CD000206903685B6998470028F2DBC1B205A828
:104CE00001F081FC84493EA801F0F7FB3EA905A82C
:104CF00001F0B1FC05003EA801F09AFB002D00D0A8
:104D000092E07E493BA801F0E8FB3BA905A801F031
:104D1000A2FC05003BA801F08BFB002D00D09AE01F
:104D2000774938A801F0D9FB38A905A801F093FC10
:104D3000050038A801F07CFB002DC2D06D4905A804
:104D400001F011FC2C22216935A801F057FB35A890
:104D500001F0DDFC35A801F06BFB0D22216932A8C2
:104D600001F04CFB32A801F0D2FC050032A801F0A2
:104D70005FFB206903681B6998470028F9D0206908
:104D800003685B6998470A28F3D1206903681B69A7
:104D900098470028F9D0206903685B6998470A287A
:104DA000F3D10027BD428CDD206903681B69984759
:104DB0000028F7D0206903685B699847C0B28C234C
:104DC0005B00E258531CFF210B401D3161588B42A0
:104DD00004D0A21810768C225200A3500137E1E7CC
:104DE000022544E705A801F067FC424905A801F047
:104DF000BAFB3FE78A239B00E5180D22216920A812
:104E000001F0FCFA20A9280001F0A7FB20A801F07E
:104E10000FFB35E701F0D0FC801B3A4B984200D8DD
:104E20004CE701256D4200E00125002D15D005A8B5
:104E300001F0FEFA012D18D08A239B00E518290005
:104E400008A801F080FB08A801F0F2FA2E4928001A
:104E500001F0E3FB82E50225E7E705A801F02CFC61
:104E6000244905A801F07FFBE1E78A239B00E518B0
:104E700026491DA801F031FB0D2221691AA801F075
:104E8000BDFA1AA91DA801F0B9FB0100280001F024
:104E9000A3FB1AA801F0CCFA1DA801F0C9FACBE7D0
:104EA00001F08AFC801B174B984200D87DE5012554
:104EB0006D4200E00125002D0ED005A801F0B8FAE2
:104EC000012D25D000239846404663B00CBC904687
:104ED0009946F0BD0225EEE705A801F0EDFB054976
:104EE00005A801F040FBE8E770D0000054D00000B6
:104EF0007CD0000098CF00004CD00000C0CF000054
:104F000080D00000E7030000ECCF0000F8D00000E4
:104F1000029B052BD8D1754950A801F0DEFA8A23EF
:104F20009B00E01850A901F0C2FBC643F60F50A841
:104F300001F07EFA002EC7D06D49206901F0C6F954
:104F40006C49206901F0C2F90A220121206901F0AF
:104F50002BFA6949206901F0B9F920690368DB6817
:104F60009847022001F072FC644905A801F0B5FAE7
:104F7000402105A801F080FA01F01EFC81460220C4
:104F800001F064FC206903681B699847002800DC75
:104F900086E0206903685B6998470028F2DBC1B2AC
:104FA00005A801F020FB56495FA801F096FA5FA919
:104FB00005A801F050FB07005FA801F039FA002FA7
:104FC00078D150495CA801F088FA5CA905A801F0E5
:104FD00042FB07005CA801F02BFA002F74D14A496C
:104FE00059A801F07AFA59A905A801F034FB070085
:104FF00059A801F01DFA002FC4D0404905A801F0BE
:10500000B2FA2C22216956A801F0F8F956A801F04D
:105010007EFB56A801F00CFA0D22216953A801F07D
:10502000EDF953A801F073FB804653A801F000FA94
:10503000206903681B6998470028F9D02069036834
:105040005B6998470A28F3D1206903681B69984770
:105050000028F9D0206903685B6998470A28F3D1D2
:105060000027B8458EDD206903681B699847002832
:10507000F7D0206903685B699847C0B28C235B0056
:10508000E258511C193B0B408E21490061588B425C
:1050900004D0A21810768C225200A3500137E0E70A
:1050A00001F08AFB4B46C01A184B984200D866E7BD
:1050B00001256D42002D09D005A801F0B9F9012D97
:1050C00000D00026B046FFE60225F3E705A801F070
:1050D000F3FA0A4905A801F046FAEDE70C4B039AEA
:1050E00002992000FFF712FB8046EDE624D0000075
:1050F00070D0000064D000007CD0000098CF000089
:1051000040D00000C0CF000080D00000E7030000C6
:105110001304000070B588B09622134BD201082109
:105120001248FFF7F3FA002800D1FEE7104902A861
:1051300001F009FA0F4905A801F005FA0B4C2368A4
:105140000D4D0095DE690023059A02992000B047B5
:1051500005A801F06DF902A801F06AF98E239B0001
:10516000E55008B070BDC04633040000680200205E
:105170001C0200202802002060EA000000233222E6
:1051800083540132835470472323C35C3F2B0CD0DC
:1051900005D95F2B07D07F2B06D10C2004E01F2BF5
:1051A00002D1092000E00B2070470A20FCE770B50F
:1051B00005000C0000F0A2F9002817D0CC2C0FD06D
:1051C00008D8552C0AD129001731280000F025FAFB
:1051D00001200BE0EC2C03D0F02C01D0002005E0E6
:1051E00000222100280000F0E9F9012070BD70B50F
:1051F000040016001D00FFF7DAFF002819D04E2E1C
:105200000AD005D8442E0ED0482E0CD0002010E035
:10521000B42E01D0BE2EF9D100223100200000F0C2
:10522000CDF9012005E02A003100200000F0C6F988
:10523000012070BD70B505000023BE225521FFF787
:10524000D6FF0024082C07D8280000F0D4F92B1929
:10525000D8770134E4B2F5E728001F30082100F0C8
:105260001DFA2723EB5CC01A43425841C0B270BDFF
:10527000F0B5C64600B582B005003323C35C98463E
:10528000002B06D1FFF793FF002802D04746019775
:105290001CE02800FFF772FF00239846404602B04A
:1052A00004BC9046F0BD32230022EA54F6E7002EFB
:1052B00034D001219140EB182A331A780A431A702E
:1052C0003100280000F044F90137FFB23F2F2DD8FC
:1052D000280000F05AF904000600280000F055F9F3
:1052E000002C01D00028DED1FB08DBB207223A40B7
:1052F0000443E4B2002CDAD13221695CB94209D00E
:105300000AD3E9182A310978114101260E40CED17D
:105310000197CCE70126CCE72600019701219140B7
:10532000EB182A331A788A431A70C9E73223019A94
:10533000EA54131E05D133330122EA54323B984616
:10534000ACE701239846A9E7F8B505000E00F02167
:10535000FFF72DFF00281BD000240BE0E2080723F5
:105360002340B15C194101231940280000F0F0F8F6
:105370000134E4B23F2C0CD8280000F006F90700F5
:10538000280000F002F9002FE8D00028E6D0002025
:10539000F8BD0120FCE770B504000D00FFF7D4FF55
:1053A000002800D170BD082229002000173005F028
:1053B0006DFC2000FFF73EFF0028F3D02000FFF730
:1053C000E3FE2823E0540023B42255212000FFF7F8
:1053D0000EFF200000F0D9F82923E0540120E1E776
:1053E00010B50400F021FFF743FF002800D110BDE5
:1053F00021002A312000FFF7CEFFF8E710B50400A6
:1054000000F02CF92000FFF7B9FE0023B422CC21D4
:105410002000FFF7ECFE200000F0B7F8607502E016
:10542000A37D0133A3752000FFF7DAFF002807D022
:105430002000FFF7A9FE237D8342F1D22075EFE71C
:10544000200010BD10B50400002A05D0200000F097
:105450009CF80028FAD010BD0A290ED007D90B29D4
:105460000FD00C29F7D1094801F0F0F9F3E7092929
:10547000F1D15E2001F0EAF9EDE7BC2001F0E6F998
:10548000E9E77820FF3001F0E1F9E4E7EE020000FF
:1054900070B504002925435D5A425341DBB24422D2
:1054A0005521FFF7A4FE625D013D615D2000FFF71D
:1054B000C9FF2000FFF7BEFEE37F2022A05C625DF3
:1054C0000A2A12D00B2A13D0092A0BD00002C018C6
:1054D00000B205F003FA0022074B04F0F3FB05F0DD
:1054E000BBFA70BD023A9343F0E703229343EDE722
:1054F00001229343EAE7C0460000B03F70B505685B
:10550000466872B6756062B67D24013CE4B2002C38
:105510001CD0022001F0C2F9336A1D42F5D072B6E8
:105520007561B56062B6F020400001F0B7F972B65F
:105530007560462001F0B2F9346A25406C426C4136
:10554000E4B262B6CD20400001F0A8F9200070BDA1
:1055500070B505684468CB070BD472B66561A56069
:10556000412001F09BF9A56162B6052001F096F992
:1055700070BD72B66561A5600A2001F08FF9A56162
:1055800062B6372001F08AF9F2E770B50468456821
:1055900072B6AC606C61032001F080F96C600A2087
:1055A00001F07CF92B6A1C4206D1002462B635203A
:1055B00001F074F9200070BD0124F7E7F8B505008B
:1055C0000E001700012405E000212800FFF7C0FFAE
:1055D0006400E4B2002C03D02642F5D00121F4E7A8
:1055E000002F07D172B66B682A685A606B682A6808
:1055F0005A6162B6F8BD70B505000026012401E0CD
:105600006400E4B2002C06D02800FFF7BEFF00289B
:10561000F6D02643F4E7300070BD70B505000E00EB
:1056200000225521FFF7CAFF0024072C07D8315D5F
:1056300000222800FFF7C2FF0134E4B2F5E770BD95
:1056400000230374837443740722831800211972A2
:10565000002A01D0013AF8E77047000070B5050054
:105660000C000021200001F0D1FA0A4A610008195B
:10567000C300D3185868012383402B600919CB005D
:105680009B56DB01044A944663446B602800FFF795
:10569000D7FF70BD24D100000044004130B50500A3
:1056A00000204C1EE4B200290CD02B7843400F227E
:1056B0001A400549885C1B091033CB5C5840210017
:1056C0000135EEE730BDC04604D1000070B582B0B0
:1056D000012801D002B070BD184B9942FAD1184987
:1056E000184800F0D1F81849184800F0CDF81849CA
:1056F000184800F0C9F81849184800F0C5F8184CC7
:105700001849200000F0C0F8174E1849300000F08A
:10571000BBF801230193032500950D330D223100C1
:10572000134800F019FC0023019300951A331D2241
:105730002100104800F010FCCCE7C046FFFF00003D
:105740000008004258090020000C004260090020B7
:105750000010004268090020001400427009002077
:10576000780900200018004280090020001C004237
:10577000D00400201407002070B5354C35492000B6
:1057800000F0A6FA200000F023F903210B2001F01D
:10579000F5FA03210C2001F0F1FA00226B21200020
:1057A00000F0ACF900280FD1642001F04FF800227E
:1057B0006B21274800F0A2F9002813D1002831D02E
:1057C000234800F019F970BD214C0121200000F0A0
:1057D0001DF91B21200000F019F90321200000F021
:1057E0004BF9E1E71A4C0821200000F00FF90321E2
:1057F000200000F041F901226B21200000F07EF929
:105800000028DBD0124D280000F0C0F90400280069
:1058100000F01DF90321280000F02EF9E408012012
:105820002040CBE700226B21094800F067F90028EF
:10583000C6D0074C0121200000F0E8F80B21200021
:1058400000F0E4F80321200000F016F9B8E7C046A4
:1058500068090020A086010010B5024800F048FC4D
:1058600010BDC046D004002010B5024800F040FC36
:1058700010BDC0461407002010B502490120FFF7F3
:1058800025FF10BDFFFF000000230371016070477A
:10589000F0B5944605AC257807683E689C1E621EEC
:1058A0009441240662469207224332433A600468D8
:1058B000606807221140AD012943022B04D05B032D
:1058C0000B4303436360F0BD0023F9E770B505683F
:1058D0002C680904C0239B0219401205C026B60398
:1058E0003240114321432960026851680B435360E1
:1058F00070BD0268116801230B43136003681A68C6
:10590000D207FBD4DB69DB07F8D470470268116863
:1059100002230B4313600368DB699B07FBD47047CA
:1059200003681B7E9B0702D40379002BF8D1002368
:1059300003717047036800225A8370470368187E1A
:105940004007C00F70470368187EC009704702689F
:10595000117E80235B420B43137670470368588B9C
:105960008007C00F70470268538B02210B4353839B
:1059700070470368187EC007C00F70470368188D12
:10598000C005C00DC0B2704770B504000D00200006
:10599000FFF7EFFF0028FAD0ADB223681D85012381
:1059A0002371012070BD036801229A757047036856
:1059B00001221A7570470268116801230B431360B6
:1059C00003681A68D207FBD4DB69DB07F8D4704799
:1059D0000268116802230B4313600368DA699207B7
:1059E000FBD45A8B30218A4310210A435A8303681F
:1059F000DB695B07FBD47047036819680222914397
:105A000019600368DB699B07FBD470472823026891
:105A1000D15403681A7ED20707D45A8BD2070BD40D
:105A20005B8B9B07F5D5002007E05B8B5B0701D400
:105A3000012002E0002000E00020704703681868A1
:105A4000C006400F053843425841C0B2704710B5F8
:105A50000400FFF7F3FF002806D122685168802375
:105A6000DB020B43536010BD226851688023DB02C8
:105A70000B435360F7E7000070B504000D00FFF71B
:105A8000DDFF00280DD02268536803212940090456
:105A900009480340194351602368DB695B07FBD465
:105AA00070BD22685368032129400904024803405D
:105AB00019435160F4E7C046FFFFFCFF0368588BB1
:105AC0008006800F013843425841C0B270470368D6
:105AD000588B8006800F023843425841C0B270474D
:105AE0000368588B8007C00F70470368588B800687
:105AF000800F033843425841C0B27047F8B50400E4
:105B0000170049001143CDB2FFF7E1FF061E17D081
:105B10002268536ADB0ADB022B435362002F25D134
:105B200023681B7EDB07FBD52000FFF7D0FF002892
:105B300016D023685B8B5B0726D401263000F8BDA6
:105B40002000FFF7D2FF0028F8D12000FFF7C8FFA0
:105B50000028DDD02000FFF7B1FF061ED8D1EDE709
:105B600069083A002000FFF7C9FFE2E723681A7EC0
:105B70009207DED41A7ED207F8D55968C022920265
:105B80000A435A600026D9E70026D7E710B504007B
:105B9000FFF754FF00280AD023681A7E920702D428
:105BA0001A7ED207F8D52822985CC0B210BD2268B0
:105BB0002823D05CC0B2F9E730B50368204A93428D
:105BC00011D0204A934211D01F4A93422ED01F4A2F
:105BD00093422ED01E4A93422ED01E4A934224D185
:105BE0000E24192504E00924142501E00A241525B2
:105BF0000123A34018480360A308C0339B00195831
:105C000003222240D200FF249440A143C0249440A8
:105C100022000A431A508023DB012B430F4A538092
:105C20000E4B5B785BB2002BFADB30BD0B241625E4
:105C3000DEE70C241725DBE70D241825D8E7C0463E
:105C400000080042000C0042001000420014004214
:105C500000180042001C004200E100E0000C00407F
:105C6000F8B505000E0017001C00FFF7A5FF28007F
:105C7000FFF73FFEB2001C2313407A07120C29687D
:105C800013430B6084232A689375012E00D0F8BD5E
:105C9000012F19D008210D4B1868C000614302F094
:105CA00037FF2968072202408B895203DB04DB0C93
:105CB00013438B81C0082A689389C004C00C5B0B16
:105CC0005B0318439081E2E71021E4E70400002021
:105CD00070B505000C00FFF76FFF2800FFF76BFEA3
:105CE0002B6814221A600E4B1E686100300002F00F
:105CF0000FFF04000B49300002F00AFF43011B1A9A
:105D00009B001818FA21C90002F002FF2A68201A25
:105D10000538D368FF2108408B431843D06070BD1D
:105D20000400002040420F000120704710B50368B6
:105D30001B6A014A984710BD13040000F023194064
:105D4000302901D1012070470020FCE7F0231B011E
:105D5000194080239B0099420DD00133FF339942B3
:105D600007D080235B00994201D0002000E005208D
:105D700070470720FCE70620FAE70F2319400129A6
:105D800005D0022901D0022070470120FCE7002045
:105D9000FAE70000F0B585B00400039116008B23EC
:105DA0009B00C05C394D42001218D300EB1808214B
:105DB000595600F0E3FF364BE05C43001B18DA0055
:105DC000AD180821695600F0D9FF324BE35C022B75
:105DD0004DD08C239B00E05CFF2820D0012100F0F7
:105DE00015FF8C239B00E05C284942001518EB004E
:105DF0005B56DB01284D5F198D25AD006751274D9E
:105E0000AC4663448E25AD0063511218D0000918CA
:105E1000496801228A408F21890062501A60039BE1
:105E2000012201212069FFF71BFF256931002000B5
:105E3000FFF78CFF039031002000FFF79EFF070063
:105E400031002000FFF77AFF00903B000122039908
:105E50002800FFF71DFD124BE25C0E4BE15C206950
:105E6000FFF734FD2069FFF751FD05B0F0BD902329
:105E70009B00E05CFF28ACD043001B18DA00034B0A
:105E80009B180821595600F079FFA2E724D10000A1
:105E90002D0200002F02000018440041144400416C
:105EA0002E020000002380225200835004328350CF
:105EB00004328350704710B5040080225200002144
:105EC00004F000FF2000FFF7EDFF200010BD0000F0
:105ED000F8B5DE4657464E464546E0B504008B46CB
:105EE000924699460AAB1B7898460BAB1F780CABD1
:105EF0001E780DAB1D7800234360FA239B0083605E
:105F0000114B083303601430FFF7D5FF2000213018
:105F1000FF30FFF7D0FF5B4623618B239B00524687
:105F2000E2540A4B4A46E254094B4246E254094BBA
:105F3000E7540133E6541033E55420003CBC90464E
:105F40009946A246AB46F8BDCCD400002D02000015
:105F50002E0200002F02000070B584B0040008A8D3
:105F6000057809A80678FF20039002900196009515
:105F70002000FFF7ADFF200004B070BD10B5040095
:105F80000069FFF7B6FC20001430FFF78BFF2000FC
:105F90002130FF30FFF786FF10BD84235B00C0581F
:105FA000704710B5040020002130FF30FFF7F5FFE7
:105FB0000028F8D12069FFF7B3FC10BD10B51430EC
:105FC000FFF7EBFF10BD84235B00C3588020400027
:105FD000C01A704710B52130FF30FFF7F4FF10BD35
:105FE00084235B00C358002B04D082235B00C3587A
:105FF000C05C704701204042FBE710B51430FFF74A
:10600000EFFF10BD84235B00C0580138FF384342C6
:106010005841C0B270470131FF200840704770B549
:1060200004000E00FFF7EEFF00280DD180256D0063
:106030006359E65461592000FFF7EDFF6051842257
:106040005200A3580133A35070BD30B583B0050092
:106050000C00EFF3108300930123019372B6019BB0
:106060005A1E0192002B04D021002800FFF7D7FF11
:10607000F5E7009B002B02D162B6BFF36F8F03B030
:1060800030BD70B5040084235B00C358002B0ED0D4
:10609000822676008359C55C8159FFF7BCFFA05169
:1060A00084225200A358013BA350280070BD012058
:1060B0004042FBE700B583B0EFF310830093012368
:1060C000019372B6019B002B09D0FFF7DAFF009B0A
:1060D000002B02D162B6BFF36F8F03B000BD009BEF
:1060E000002B02D162B6BFF36F8F01204042F4E76C
:1060F00010B504000069FFF731FC00280FD12069BA
:10610000FFF71CFC002811D12069FFF732FC0028A2
:1061100028D12069FFF717FC002838D110BD20696D
:10612000FFF72CFC2069FFF71EFCE8E72069FFF76A
:1061300025FC0100230014331800FFF786FF8C2391
:106140009B00E35CFF2BDFD020001430FFF73BFF08
:106150000928D9DC8D239B00E3588F229200A25896
:106160001A60D1E720002130FF30FFF716FF00282A
:1061700009D020002130FF30FFF79CFFC1B2206919
:10618000FFF702FCC5E72069FFF711FCC1E72069B2
:10619000FFF7DDFB2069FFF7CDFBBFE770B505001A
:1061A0000C000069FFF7E5FB002822D02800213011
:1061B000FF30FFF7F2FE00281BD128692100FFF70E
:1061C000E3FB46E00F221A40083A9208063292009A
:1061D00021498C466244526803210B40DB00DA40BF
:1061E00092090323134024E02869FFF7C2FB00282B
:1061F00022D128002130FF30FFF704FF00281FD0F4
:10620000EFF31083DB07EFD4134B5B68DB05DB0D8B
:10621000EFD0103B5BB2002BD4DB9A08C032920067
:106220000E49525803210B40DB00DA409309032248
:106230001340032BD8D9DCE72800FFF759FFD8E734
:1062400028002130FF302100FFF7FFFE2869FFF70B
:10625000AAFB012070BDC04600ED00E000E100E0B7
:1062600070B504001430FFF725FF05008C239B0058
:10627000E35CFF2B0CD020001430FFF7A4FE0A28AB
:1062800006DD8E239B00E3588F229200A2581A60ED
:10629000280070BDF8B505000024561E002A0BD05A
:1062A0002B681B684F1C097828009847002803D0EA
:1062B000013432003900F0E72000F8BD10B50B00C2
:1062C00009689A6803685B68984710BD70B5050057
:1062D0000C1E09D0080005F049FA02002B685B6823
:1062E00021002800984770BD0020FCE710B5036826
:1062F0001B68984710BDF0B5C64600B58AB0804609
:106300000D00160001AA20230021D154012E01D92D
:1063100009AF07E00A26FBE73734E4B2013F3C70DF
:10632000002D0ED03100280002F078FCCCB23100F4
:10633000280002F0EDFB0500092CEDD83034E4B262
:10634000ECE7002F0DD0380005F010FA02004346AC
:106350001B685B683900404698470AB004BC904609
:10636000F0BD0020F9E770B505000C00002A07D049
:106370000A2A15D1002908DB0A22FFF7BCFF03E037
:10638000C9B203681B68984770BD2D21FFF7AEFFA7
:10639000060061420A222800FFF7ADFF3018F3E73C
:1063A000D2B2FFF7A8FFEFE710B5FFF7DCFF10BD93
:1063B00010B5002A04D1C9B203681B68984710BD04
:1063C000D2B2FFF798FFFAE710B5FFF7F1FF10BD63
:1063D00010B5040000F0F0F9E06023685B6920006C
:1063E0009847002808DA00F0E7F9E368C01AA368C4
:1063F0009842F2D30120404210BD000070B5040065
:106400000D001600094900F068F82800FFF7E0FFCA
:10641000002809DBC1B2B14206D0200000F0E3F849
:106420002800FFF7D5FFF3E7200070BD98CF0000EC
:1064300010B504000068002801D004F00BFC200017
:1064400010BD10B504000068002801D004F002FC63
:1064500000232360A360636010BD70B504000D00CD
:106460000131006805F03CF9002803D02060656028
:10647000012070BD0020FCE710B504000368002B6C
:1064800002D043688B420BD22000FFF7E6FF0028C2
:1064900007D0A368002B04D1236800221A7000E003
:1064A000012010BD70B504000E0015001100FFF7AB
:1064B000E3FF00280DD0A5602A003100206804F019
:1064C000E5FB2368A2689446634400221A7020000A
:1064D00070BD2000FFF7B5FFF9E770B504000D00AF
:1064E0000023036043608360002907D0080005F0A3
:1064F0003DF9020029002000FFF7D4FF200070BD05
:1065000070B505000C0088420CD0006804F0A2FBB6
:1065100023682B60A368AB6063686B600023236013
:10652000A360636070BD10B50400884206D00B689C
:10653000002B05D08A681900FFF7B4FF200010BDBA
:10654000FFF77FFFFAE710B5040000230360436004
:106550008360FFF7E8FF200010BD10B50400FFF7CF
:10656000CFFF200010BD70B505000C1E09D008003B
:1065700005F0FCF8020021002800FFF793FF280037
:1065800070BDFFF75EFFFAE7F0B583B007000E00BD
:10659000150083689C1800291BD0002A04D1012310
:1065A0000193019803B0F0BD2100FFF765FF019052
:1065B0000028F6D03B68BA689446634418002A0065
:1065C000310004F063FBBC603B681C19002323709E
:1065D000E7E700230193E4E710B50B0009689A6828
:1065E000FFF7D2FF10BD00B583B06B46D9710733FA
:1065F00001221900FFF7C8FF03B000BD10B5040069
:106600000B0009689A68FFF7BFFF002801D020003F
:1066100010BD2000FFF715FFF9E710B58368002BC8
:1066200006D1002913D00B78002B12D1012007E0EE
:10663000002906D0006805F08FF843425841C0B2E7
:1066400010BD0368187843425841C0B2F8E70120F2
:10665000F6E70020F4E710B583688A6893420DD30B
:106660000468002C0CD0096800290BD0981A201857
:1066700005F072F843425841C0B200E0002010BD5E
:106680000020FCE70020FAE710B58368934208D9A0
:106690000468A018096805F070F8002804D0001BF1
:1066A00010BD01204042FBE701204042F8E710B551
:1066B0000022FFF7E9FF10BDF8B506000768002FBC
:1066C0001FD08468002C1CD03D00287804F09EFA6E
:1066D000002801D00135F8E7013C3C19207804F08E
:1066E00095FA002803D0A54201D8013CF6E7013411
:1066F000621BB260AF4205D33368B2689B180022B8
:106700001A70F8BD2900380004F0C9FAF4E710B592
:106710000068002802D004F041FA10BD0020FCE718
:10672000FEE7000010B5034B1B68002B00D0984714
:1067300010BDC0468809002010B5124A124B9A427B
:1067400013D0124A0F4B9A4207D00E4B0F4A01E06A
:1067500002CA02C30C498B42FAD30A480A4988424A
:106760000BD09A4209D00A4B04E0064B074AF4E7E3
:10677000002204C3074A9342FAD300F0BFF800F0A6
:106780009DF8FEE7000000200002002080D90000F4
:1067900000020020D40F002010B500F08DF8002872
:1067A00000D010BD00F070F8FBE70000014B18604E
:1067B0007047C04688090020014B18687047C046E2
:1067C0008C09002030B51E4B9C681E4B59688023F5
:1067D000DB0419404B1E9941C9B21B4B186802E0FB
:1067E000100019002C00164B9D68164B5B68802228
:1067F000D20413405A1E9341DBB2134A12689942E5
:10680000EED1904203D0100019002C00EBE7AC420F
:1068100003D2100019002C00E5E709184801401ABE
:1068200080004118C800064B5B681B1B9C00E418E5
:106830002301E4182302E418240D001930BDC046DA
:1068400010E000E000ED00E08C09002070B5041EAF
:1068500000D170BDFFF7B6FF05000CE0013CFA2344
:106860009B009C466544002C05D0FFF7ABFF401B06
:10687000034B9842F2D8002CEBD000F01CF8F2E762
:10688000E70300007047000010B5034A13680133A6
:10689000136000F005FB10BD8C09002010B5002826
:1068A00008D04300181803011800032102F030F942
:1068B0000138FDD110BD70470020704710B500F0C1
:1068C000E3F804F07FF9FEF757FF0120FFF7BEFF62
:1068D000084C200001F0B2FD200000F021FCFEF782
:1068E00019FCFDF7E1FA044B002BFAD000E000BFE1
:1068F000F7E7C046B80900200000000052494A6886
:106900001E239A431C3B13434B60504A9369082152
:106910000B4393614E4B4F4A9A829A8A02210A4353
:106920009A824B4BDB689B07FBD54B4B01221A70BD
:10693000494B1B78DB0704D5474B5B785BB2002BD8
:10694000F6DB454B01229A60434B5B785BB2002B30
:10695000FADB414B414A5A603F4B5B785BB2002BFC
:10696000FADB3D4B8222D2015A803B4B5B785BB213
:10697000002BFADB364B02229A84354BDB68DB06B0
:10698000FBD5334B364ADA62314BDB68DB06FBD58D
:106990002F4A938C33490B4393842D4BDB68DB06E2
:1069A000FBD52B4A938C02210B439384284BDB6845
:1069B0001B06FBD5264BDB685B06F7D5244BDB6853
:1069C000DB06FBD5244B00229A60234B5B785BB23D
:1069D000002BFADB204B244A5A601F4B5B785BB2DA
:1069E000002BFADB1A4B196A204A0A401A62196A0C
:1069F000802291431962184B03229A601C4A5A6004
:106A0000154B5B785BB2002BFADB104B00221A723D
:106A10005A729A72DA72174B174A1A60174B1A6831
:106A2000D10807230B4016490868C00E5101FF2208
:106A30000A401B0202431343124A1385024A51685B
:106A400080230B4353607047004000410004004026
:106A5000000800400C060000000C00400105010089
:106A6000B905FF7D040A000000070300FFFCFFFFDB
:106A70000306010004000020006CDC02246080009A
:106A8000206080000040004210B5304B1868FA21A9
:106A9000890002F03DF801382D4B984255D82D4918
:106AA00048602D4A136A1B021B0AC02000060343DC
:106AB000136200238B6007330B60136A1B021B0AEF
:106AC000802109060B431362244B1A6AFC210A43F6
:106AD0001A62196AFC2292010A431A62196AA022F8
:106AE000D2020A431A621E4B5B785BB2002BFADBC0
:106AF0001B4B1C4A5A801C4B5B7EDB09012BFAD0D6
:106B0000194BE422D2009A803F22DA70164B5B7E4A
:106B1000DB09012BFAD0144BC02252011A6100226A
:106B20009A70002000F026F80D4B5B785BB2002BCA
:106B3000FADB0B4B0D4A5A800D4BDB79DB09012B3D
:106B4000FAD00B4B41225A7010BDFEE70400002022
:106B5000FFFFFF0010E000E000ED00E00004004057
:106B6000000C00401E400000004000422140000098
:106B700000480042224B5B7EDB09012BFAD005283E
:106B800031D880001F4B1B589F461D4A11691E4B70
:106B90000B40136153780F218B4301210B4353703A
:106BA0007047174A1169184B0B40136153780F2136
:106BB0008B4303210B435370F2E7114B1969124ABF
:106BC0000A401A615A780F218A435A70E8E70C4A42
:106BD00011690D4B0B40136153780F218B43022138
:106BE0000B435370DCE7064A1169F0231B050B4386
:106BF000136153780F218B4302210B435370CFE76E
:106C00000040004200D50000FFFFFFF070B54300D8
:106C10001B18DA003A4B9B181B7A5BB2013307D082
:106C2000012953D0002904D002291BD0032933D0D5
:106C300070BD334C42001118CB0019001B5761186E
:106C40004D68DB012F498C4663445B1940330221B8
:106C500019700139A9401018C3001B57DB016344A8
:106C60005960E5E7264C43001918CA001100125775
:106C700061184D68D20123498C4662445119403154
:106C800006260E700121A94051601818C3001B5739
:106C9000DB0163449961CBE7194C43001918CA0022
:106CA0001100125761184D68D20116498C46624492
:106CB0005119403106260E700121A9405160181863
:106CC000C3001B57DB0163445961B1E70C4C420020
:106CD0001118CB0019001B5761184D68DB010949D9
:106CE0008C4663445B194033022119700139A94075
:106CF0001018C3001B57DB016344996098E7C04636
:106D000024D100000044004170B543001B18DA0094
:106D1000184B9B181B7A5BB2013324D0154C4200F0
:106D20001518EB001D001B57641965680122AA4065
:106D3000DC01114884466444A06802420CD10E0074
:106D4000701E8641D8016044401940300478B50077
:106D50000426B4432C430470002905D0DB01064906
:106D60008C4663449A6170BDDB0103498C466344E1
:106D70005A61F8E724D1000000440041F8B543000F
:106D80001B18DA003A4B9B181B7A5BB2013300D117
:106D900069E04B1CDAB20C2A68D89300354AD35804
:106DA0009F4601204042F8BD092905D00A2909D093
:106DB0000B290DD00020F6E7C0B20021FFF726FF17
:106DC0000020F0E7C0B20839FFF720FF0020EAE713
:106DD000C0B20A39FFF71AFF0020E4E743001B188E
:106DE000DA00234B9B185B68DA071DD4204E440061
:106DF0002518EA0092575B08D2011F4DAC46624449
:106E0000D31830331F780F252940AF433943197009
:106E10002018C300F6187368D31840331A7801217C
:106E20000A431A700020BEE7114D44002618F200F4
:106E300052575B08D201104EB4466244D318303327
:106E40001E780901C9B20F273E403143197020183E
:106E5000C300ED186B68D31840331A7801210A4338
:106E60001A7000209FE7012040429CE700209AE72B
:106E700024D1000018D500000044004110B50400E2
:106E8000FFF700FD014B1C6010BDC046080000204C
:106E9000024B012252421A607047C046080000208F
:106EA00010B5064B1B685A1C04D0013B034A136003
:106EB000002B00D010BD024B9847C04608000020B0
:106EC00025D90000704782B0836D002B1FD1A833F5
:106ED000C25CD2B2EFF3108300930123019372B628
:106EE000019B591E0191002B03D0A823C25CD2B292
:106EF000F6E70099002902D162B6BFF36F8F002A2E
:106F000022D0A423C358A02280581B1A1CE0EFF300
:106F1000108300930123019372B60022019B591E36
:106F20000191002B03D0F423C25CD2B2F6E70099A2
:106F3000002902D162B6BFF36F8F002A04D0F0237C
:106F4000C358EC2280581B1A180002B0704700008A
:106F500030B583B041680C68FF23426D13401A00BE
:106F600008325201A218D279D20723D55A018A18C1
:106F700092689204920C1FD15A0189188D68504A68
:106F80001540802252032A438A608A68920B950337
:106F90008D6008335B01E418237940221343237189
:106FA0004368416D1A68FF230B4008335B01D31817
:106FB0007F22DA7103B030BDC46D002C3ED1A43401
:106FC0000251A33CC4650200AC325B01C9184A609F
:106FD000EFF310830093019472B6019B5A1E019245
:106FE000002B24D0A8230122C2544C33C35CDBB253
:106FF000F4328354835C002BEFD14568FF33426D3C
:1070000013405A01AA1894682D490C408021490365
:10701000214391609168890B8C0394602A6808333E
:107020005B01D3181A7940210A431A71D5E7009BF6
:10703000002BB5D162B6BFF36F8FB1E7F0240251D8
:107040000022C265020060325B01CB185A60EFF388
:10705000108300930123019372B6019B5A1E019283
:10706000002B24D0F4230122C2544C3BC35CDBB27E
:10707000F4328354835C002BEFD14568FF33426DBB
:1070800013405A01AA1894680D490C408021490305
:10709000214391609168890B8C0394602A680833BE
:1070A0005B01D3181A7940210A431A71D5E7009B76
:1070B000002B00D074E762B6BFF36F8F70E7C04655
:1070C000FF3F00F0012800D07047054B9942FBD1EB
:1070D000044B054A1A600723002BF5DB013BFBE755
:1070E000FFFF0000740E00200050004110B50400A6
:1070F00001F0E6FA200010BD30B583B00D006B46FC
:10710000DC1D0023237001F0C5FA210001F04CFAC8
:107110002B689C4660442860207803B030BD000096
:107120000078002810D0094B1B681A8901218A4376
:107130001A811A8B08210A431A831A8B04210A43E5
:107140001A83034B00221A607047C046740E002059
:107150006C0E002010B5124A93699B0B9803906146
:1071600012680823FF330220D0540624FF34105D38
:10717000883BFF3B034313550823FF33D35C9B0736
:10718000FAD5084A937A7F2008407F218B43190063
:1071900001439172917A80235B420B43937210BD3D
:1071A000740E00200050004110B58A010B4BD2181C
:1071B000FF2319400A484B01C3185A619A69920B80
:1071C00094039C6103680831490159180223CB716B
:1071D0004A79823B13434B7110BDC046E40900203D
:1071E000740E002008314901024B9C466144202363
:1071F0004B7170470050004110B58A00084BD058C1
:10720000002803D003689B68984710BDFF231940EE
:107210004901044B591888688004800CF5E7C04682
:10722000BC090020740E002010B50C00FFF7E4FF2D
:1072300000280DD0074B1B68FF2121400831490170
:1072400059184A7980235B4213434B710223CB7157
:1072500010BDC046740E0020F0B583B000900F0042
:10726000110001921C002A4B1B68002B4CD0BB0064
:10727000284A9858002807D003685B68220098477E
:107280000400200003B0F0BD39000098FFF7B4FF00
:10729000A04233D3FF263E401F4B7101581882682D
:1072A000920B950385601B685B180933FF331A78CE
:1072B00001210A431A70BB0118495918220001988C
:1072C00003F0E4FC002CDCD039000098FFF794FFB9
:1072D0000028D6D1104B1A68330008335B01D3184D
:1072E00019794020014319710121D9717301D31813
:1072F0000933FF335A780A435A70C2E739000098BD
:10730000FFF77AFF0400C5E701246442B9E7C046ED
:107310006C0E0020BC090020740E0020A40B00207D
:1073200000B583B001236A460732FFF795FF0128B5
:1073300003D16B46D87903B000BD01204042FAE783
:1073400010B58A01184BD218FF231940174C4B0176
:10735000E3185A609868164A10408022520302438C
:107360009A609A68920B9003986022680B00083329
:107370005B01D31818794024204318710B0008339F
:107380005B01D3189B795B06F8D50B0008335B01D2
:10739000D318DB79DB07F8D54901044B5918886805
:1073A0008004800CC0B210BDA40B0020740E00201D
:1073B000FF3F00F070B50D0014000021FFF7C0FF83
:1073C000A04200D920000023A34204D2024AD25C8A
:1073D000EA540133F8E770BDA40B0020F8B5DE468F
:1073E00057464E464546E0B50E0091461F00424BBB
:1073F0001B68002B00D176E08023DB019F4200D97F
:1074000075E00023984651E03C4B18683C4901F078
:107410007FFB3C4B5843172101F07AFB00E018003A
:10742000230008335B01EB18DB799B074BD4364B09
:107430009B5D002B02D1431E0028F0D1324B01226C
:107440009A556401314B1C19A3699B0B9A03A261E5
:1074500001235B42984640463CBC90469946A24672
:10746000AB46F8BDBA46B301294A9B4693445246FF
:107470004946584603F00AFC6201244B9B185A46C1
:107480005A61996952469204920C890B89030A4306
:107490009A61083464012D190223EB716A79823BE9
:1074A00013436B71D0445346FF1AD144002FD2D0FE
:1074B000164B1D68FF243440230008335B01EB1892
:1074C0009B79DB09A0D1104B00229A553F2FC9D9D7
:1074D00062010E4B9B189969802212060A439A6139
:1074E00040239A46BFE701235B429846B3E7012356
:1074F0005B429846AFE7C0466C0E002004000020B7
:1075000040420F0070110100DC090020740E0020C1
:10751000E409002070B50E0011001C00B5010C4BF1
:10752000ED182200280003F0B1FBFF2131404B0190
:107530000849C9184D618A69074B13408B618A69F4
:10754000A3049B0C920B920313438B61200070BD2C
:10755000E4090020740E0020FF3F00F0F0B583B076
:1075600001900E001700104B1B78002B18D10F4B09
:107570001B78002B0CD114000025002C10D07219A0
:10758000230000210198FFF7C5FF2D18241AF4E706
:10759000074D2C880748201803F078FBE4192C804D
:1075A000380003B0F0BDC046640D0020680E002016
:1075B0006A0E0020680D002070B50C001500012A2D
:1075C0002AD9100003F03CFB0600200004F0CEF89E
:1075D000013040003070032373700222AA420FD2A0
:1075E000217800290CD00134531CDBB2B154AB42DA
:1075F00005D0F318002119700232D2B2EEE71A005A
:1076000031000648FFF7AAFF441EA041C4B2300073
:1076100003F020FB200070BD0024FBE7B809002028
:1076200010B5002906D0084B01221A70074B002222
:107630001A8010BD044B00221A70044B1A880449AA
:10764000FFF78CFFF5E7C046680E00206A0E0020A9
:10765000680D0020F0B587B001900C00002505955D
:107660001B4E0127377005A9FFF746FD02AB9D7140
:10767000092302AA1370073B53705771A023D371DB
:107680005A331372059B0933538013001071357000
:10769000092C16D0002305930121019C2000FFF73F
:1076A000BFFF092202A92000FFF758FF05A920000B
:1076B000FFF722FD00212000FFF7B2FF012007B0F5
:1076C000F0BD092219000198FFF748FFF6E7C04610
:1076D000640D002070B592B006000C00CD78022D2C
:1076E0000CD000F0D7FF210000F072FF002810D16D
:1076F000012D13D0032D23D000200DE08B79C97903
:10770000090219432E48FFF7A5FF431E9841C0B256
:1077100002E0C317181AC00F12B070BDA379E27946
:1077200012021A43112A46D8D2B22649002945D05E
:10773000002A00D10A783000FFF710FF0120EBE7A4
:10774000A278002A07D1A179E3791B020B43032B0E
:107750002ED91D49EAE7022A05D0012A0CD0032AB6
:1077600013D00020D8E7A379E27912021A4317490F
:107770003000FFF721FFCFE7A379E27912021A4325
:1077800013493000FFF718FFC6E73E32002101A879
:1077900003F098FA00F07EFF01A900F029FFA37919
:1077A000E27912021A4301A93000FFF705FFB3E79F
:1077B000DAB20549BAE703490022B7E70020ABE790
:1077C000B8090020C8D50000B8D50000A0D5000039
:1077D000BCD50000FF230B405B010349C9188B692E
:1077E0009B0B9A038A617047740E002070B50500E8
:1077F0000C0000F04FFF210000F00AFF041E01D032
:10780000200070BD00212800FFF7E4FFF8E7002307
:107810000370012242704360073303727047000017
:1078200083000148C018704790090020836C4020F5
:10783000C01A7047806C7047836C002B02D0436C79
:10784000C05C704701204042FBE7002303644364AF
:107850008364704710B504004022002103F032FA1F
:107860002000FFF7F2FF200010BD0000F8B50C006B
:10787000832A42D0022A5AD0822A00D1C7E0002AA5
:1078800054D1FF320A406F48510141188B686E4F46
:107890003B40C026B60533438B60A4016B4BE31815
:1078A0004B600068130008335B011D5C07229543A1
:1078B000012215431D54102294468C44624695685B
:1078C0003D402E439660624AA4184C611A5C7024B5
:1078D000A243102422431A548C685E4A144080222A
:1078E000520322438A608A68920B94038C60C31807
:1078F0001A7940210A431A7118E0FF230B40514EB8
:107900005A01B218906950490840C02189050143C5
:107910009161A4014E4964185461316808335B01D8
:107920005A5C70208243402002435A54F8BD8B00B9
:10793000494A9858002802D003685B699847F820A4
:1079400000F0BAFE0500454B03603E4B4360083033
:10795000FFF780FF6C650023AB65EB65A022AB50A1
:107960000432AB500432AB544432AB500432AB500F
:107970000432AB540132AB54FF331A00224052019F
:1079800069688C46624490682F490840C021890587
:10799000014391606A6810686A6D1A4008325201AA
:1079A000115C0726B143032631431154290060318D
:1079B0006A6D1A40520168688446624451606A6880
:1079C0001268696D1940490152180932FF32517825
:1079D0000120014351706E686A6D13405A01B2185C
:1079E00090681C49084080214903014391609168D7
:1079F000890B88039060326808335B01D3181A79C9
:107A000040210A431A71A400134BE5508EE7FF236F
:107A10000B400C4D5A01AA1890690B490840C0212F
:107A2000890501439161A4010949641854612968D9
:107A300008335B015A5C70208243302002435A5461
:107A400074E7C046740E0020FFFFFF8FA40B0020D8
:107A5000E4090020FF3F00F0BC09002084D50000AD
:107A600070B505000124092C0BD8A300054A9A58CB
:107A7000002A06D021002800FFF7F8FE0134E4B206
:107A8000F1E770BD9009002030B583B005000C000F
:107A90004B780B2B00D991E09B00494AD3589F4665
:107AA000002003B030BD0B78002B0FD001AB0022BB
:107AB0001A705A70434B1B78012B10D0022301AA75
:107AC00000212800FFF726FD0120EAE701AA137034
:107AD000537002330021FFF71DFD0120E1E701ABE8
